:020000040800F2
:1000000000000320DD020008E3020008E702000808
:10001000590300085D030008A50300080000000064
:10002000000000000000000000000000ED030008D8
:10003000F103000800000000F5030008B51A0008ED
:10004000090400080904000809040008090400085C
:10005000090400080904000809040008090400084C
:10006000090400080904000809040008090400083C
:10007000090400080904000809040008090400082C
:10008000090400080904000809040008090400081C
:10009000090400080904000809040008090400080C
:1000A00009040008090400080904000809040008FC
:1000B00009040008090400080904000809040008EC
:1000C00009040008090400080904000809040008DC
:1000D00009040008090400080904000809040008CC
:1000E00009040008090400080904000809040008BC
:1000F00009040008090400080904000809040008AC
:10010000090400080904000809040008090400089B
:10011000090400080904000809040008090400088B
:10012000090400080904000809040008090400087B
:10013000090400080904000809040008090400086B
:10014000090400080904000809040008090400085B
:10015000090400080904000809040008090400084B
:10016000090400080904000809040008090400083B
:100170000904000809040008090400080000000040
:10018000090400080904000809040008090400081B
:10019000090400080904000809040008090400080B
:1001A00009040008090400080904000800B583B028
:1001B00001F03AFB384B394A1360394A1360394928
:1001C00000E02146384B99420BD20A684B6801F196
:1001D0000C0488689842F4D9116819600433043219
:1001E000F8E72E4B1A68314B9A4200D0FEE72C4BB1
:1001F0001A682F4B9A42F9D1274B2E4A13602E4A88
:1002000013602E4B05E00020106004329342FAD8B0
:100210000B462B4A934204D2194651F8082B5B68CF
:10022000F4E7244B1B6813B9234B1B6803B1FEE7AB
:1002300001F092FC694601A801F088FA214C224B9A
:10024000E41AA4100025AC4214DC204C204BE41A24
:10025000A4100025AC4213DC0099019801F00EFDBA
:1002600005461C4C1C4BE41AA410002C0EDC28463E
:1002700001F03FFA144B53F8253098470135E2E777
:10028000134B53F8253098470135E3E7013C124BF7
:1002900053F824309847E8E7BABADECA00000020D5
:1002A000882700200C040008240400087856341223
:1002B000325476988C2700206C28002024040008F3
:1002C000340400083404000834040008340400082E
:1002D00034040008340400083404000808B5FFF7AB
:1002E00065FF00BEFEE71EF0040F0CBFEFF30880B1
:1002F000EFF309807146414A10472DE9F04182B081
:1003000004468846124B5E6B9F6B9D6A1B6B13F015
:10031000020F03D00E4BDB6A002B0CDB0D4801F003
:1003200027FACDF800803B4632462946204601F0A8
:1003300087FA00BEFEE74BF6AB6101F0FBFA00283E
:10034000ECD0034B4FF00042DA6202B0BDE8F0811E
:1003500000ED00E0F827000800BEFEE71EF0040FE5
:100360000CBFEFF30880EFF309807146244A104771
:100370002DE9F04182B004468846084B5E6B9F6BC6
:100380009D6A074801F0F4F9CDF800803B463246FB
:100390002946204601F054FA00BEFEE700ED00E0D9
:1003A000082800081EF0040F0CBFEFF30880EFF3DD
:1003B00009807146134A10472DE9F04182B0044686
:1003C0008846084B5E6B9F6B9D6A074801F0D0F929
:1003D000CDF800803B4632462946204601F030FAEF
:1003E00000BEFEE700ED00E01428000800BEFEE7B6
:1003F00000BEFEE700BEFEE770470000FB020008FB
:0C04000071030008B903000800BEFEE70D
:10040C0078280008000000208C270020782800089D
:10041C0000000010000000108C2700207028002025
:08042C000000001000000010A8
:1004400010B50446074B1868074BA3FB0030800922
:1004500000F0A6F8002221464FF0FF3000F05AF8D5
:10046000002010BD0C000020D34D621008B50B4BCE
:100470001A6842F400721A601A6842F480621A60C4
:100480001A6842F480721A60032000F025F80F20E9
:10049000FFF7D6FF01F016FC002008BD003C02402B
:1004A000024A136801331360704700BF2028002000
:1004B000014B1868704700BF2028002010B582B09B
:1004C0000190FFF7F5FF0446FFF7F2FF001B019BC9
:1004D0009842F9D302B010BD10B50446C31E042BD8
:1004E0000FD80A4AD36823F4E0631B041B0C2402D0
:1004F00004F4E064234343F0BF6343F40033D36068
:1005000010BDA421024801F029F9EAE700ED00E05E
:10051000C825000870B505460C4616460F2A25D892
:100520000F2C28D81B4BDB68C3F30223C3F107024F
:10053000042A28BF0422191D062921D9033B4FF0A4
:10054000FF3101FA02F224EA02049C4001FA03F3AB
:1005500026EA03063443002D14DB2401E4B205F13E
:10056000604505F5614585F8004370BDBC210A482A
:1005700001F0F4F8D4E7BD21074801F0EFF8D1E726
:100580000023DCE705F00F052401E4B2034B5C55C2
:10059000EBE700BF00ED00E0C825000814ED00E027
:1005A0000138B0F1807F0AD2064B5860064AF0212C
:1005B00082F823100020986007221A6070470120FB
:1005C000704700BF10E000E000ED00E010B5044609
:1005D000042800D038B9042C0BD0094A136823F042
:1005E0000403136010BD40F2B311064801F0B6F8E1
:1005F000F1E7034A136843F004031360F2E700BF16
:1006000010E000E0C82500082DE9F04782B08046E0
:100610000E46BE4B98422BD003F58063984227D0FC
:1006200003F58063984223D003F5806398421FD07E
:1006300003F5806398421BD003F58063984217D07E
:1006400003F58063984213D003F5806398420FD07E
:1006500003F5806398420BD003F58063984207D07E
:1006600003F58063984203D0C521A94801F076F8CC
:10067000338833B37368012B1ED9112B1CD0022B86
:100680001AD0122B18D0A34A934215D002F580122B
:10069000934211D002F5801293420DD0A2F5F812C8
:1006A000934209D002F58012934205D002F58012E0
:1006B000934201D0032B09D1B368022B0BD800243D
:1006C0004FE0C621924801F049F8D3E7C72190488E
:1006D00001F044F8F0E7C8218D4801F03FF8EEE75B
:1006E000D9218B4801F03AF869E0EC21884801F003
:1006F00035F894E0092300E000238B4003430232E5
:10070000854941F82230854B1A68FB4303EA020110
:10071000706810F4803F01D047EA02017F4A1160FF
:10072000526803EA0201706810F4003F01D047EA02
:1007300002017A4A5160926803EA0201706810F47B
:10074000801F01D047EA0201744A9160D2681340C9
:10075000716811F4001F01D047EA02036F4AD360A9
:1007600001340F2C00F2E0800125A54037682F40AE
:10077000BD42F5D17368022B01D0122B2FD1336902
:10078000EBB1092B1BD0012B19D0022B17D0032B57
:1007900015D0042B13D0052B11D0062B0FD0072B0F
:1007A0000DD0082B0BD00A2B09D00B2B07D00C2B0C
:1007B00005D00D2B03D00F2B01D00E2B90D1E208CA
:1007C000083258F8220004F0070399000F238B40E9
:1007D00020EA030033698B40034348F82230D8F8FD
:1007E00000204FEA440A4FF0030909FA0AF96FEAB8
:1007F000090909EA0202736803F0030303FA0AF322
:100800001343C8F8003073685A1E012A03D9112B0C
:1008100001D0122B18D1F368032B3FF666AFD8F83E
:10082000082009EA0202F36803FA0AF31343C8F83E
:100830000830D8F8042022EA05027368C3F30015D3
:10084000A5401543C8F80450D8F80C3009EA03094C
:10085000B36803FA0AF343EA0903C8F80C30736873
:1008600013F0805F3FF47CAF002301932C4B5A6C54
:1008700042F480425A645B6C03F480430193019B11
:10088000A208911C244B53F8210004F003039900A3
:100890000F238B4020EA03001C4B98453FF42CAFFC
:1008A00003F58063984522D003F58063984520D0F6
:1008B00003F5806398451ED003F5806398451CD0EE
:1008C00003F5806398451AD003F58063984518D0E6
:1008D00003F58063984516D003F58063984521D0D1
:1008E00003F5806398453FF405AF0A2305E701232C
:1008F00003E7022301E70323FFE60423FDE60523C4
:10090000FBE60623F9E60723F7E600BF00000240F6
:10091000FC2500080000111000380140003C014097
:10092000003802400823E8E602B0BDE8F08700BFC7
:1009300070B5064615460C4629B1012D09D875B982
:100940002404B46170BD40F2B111064800F006FF06
:10095000F3E74FF4D971034800F000FFEFE7B4610B
:10096000F0E700BFFC25000830B583B004460368FB
:100970000F2B29D8236813F0010F3DD06368012B9A
:1009800001D9052B25D1A34B9B6803F00C03042B45
:1009900029D0A04B9B6803F00C03082B1ED02279B2
:1009A0009D4B1A706368002B50D0FFF781FD054600
:1009B000984B1B6813F4003F1ED1FFF779FD401BD5
:1009C0006428F5D90320E3E1F521944800F0C6FE40
:1009D000D0E7FA21914800F0C1FED4E78D4B5B6867
:1009E00013F4800FDBD08B4B1B6813F4003F03D054
:1009F0006368002B00F0C981236813F0020F5DD0FB
:100A0000E368012B31D823691F2B34D8814B9B68B5
:100A100013F00C0F3AD07F4B9B6803F00C03082BAC
:100A20002FD0E368002B74D07D4B01221A60FFF7B2
:100A30003FFD0546774B1B6813F0020F5AD1FFF7B5
:100A400037FD401B0228F5D90320A1E1FFF730FD57
:100A50000546704B1B6813F4003FCDD0FFF728FD0F
:100A6000401B6428F5D9032092E14FF496716B483E
:100A700000F074FEC7E740F22D11684800F06EFEEA
:100A8000C4E7644B5B6813F4800FCAD1614B1B68E9
:100A900013F0020F04D0E368012B01D0012077E1AD
:100AA0005C48036823F0F8032169F82292FAA2F265
:100AB000B2FA82F201FA02F213430360236813F0E0
:100AC000080F50D06369012B35D86369002B38D0EB
:100AD000544B01221A60FFF7EBFC05464D4B5B6F50
:100AE00013F0020F3FD1FFF7E3FC401B0228F5D9BA
:100AF00003204DE14748036823F0F8032169F822F9
:100B000092FAA2F2B2FA82F201FA02F213430360FD
:100B1000D4E7434B00221A60FFF7CAFC05463D4B61
:100B20001B6813F0020FC9D0FFF7C2FC401B02285C
:100B3000F5D903202CE140F26D11384800F00EFE8B
:100B4000C3E7384B00221A60FFF7B2FC0546314B71
:100B50005B6F13F0020F06D0FFF7AAFC401B0228C0
:100B6000F5D9032014E1236813F0040F60D0A368C3
:100B7000012B01D9052B1FD100230193254B1A6CA2
:100B800042F080521A641B6C03F080530193019B66
:100B9000254A136843F480731360FFF789FC054608
:100BA000214B1B6813F4807F0CD1FFF781FC401BA5
:100BB0000228F5D90320EBE040F29711174800F026
:100BC000CDFDD9E7227A194B1A70A36883B1FFF7DC
:100BD0006FFC05460F4B1B6F13F0020F28D1FFF778
:100BE00067FC401B41F288339842F3D90320CFE0E1
:100BF000FFF75EFC0546074B1B6F13F0020F17D083
:100C0000FFF756FC401B41F288339842F3D903208A
:100C1000BEE000BF00380240023802403C26000817
:100C200000004742800E474200700040703802408A
:100C3000A369022B39D8A369002B00F0A880564A7B
:100C4000926802F00C02082A00F0A480022B40F007
:100C50008880E36913B1B3F5800F2CD1236A3F2B51
:100C60002FD8636A323BB3F5BF7F30D8A36A022B1B
:100C700005D0042B03D0062B01D0082B2DD1E36A1D
:100C8000043B0B2B2FD8454B00221A60FFF710FCBA
:100C90000546414B1B6813F0007F2AD0FFF708FC84
:100CA000401B0228F5D9032072E04FF4E6713C485E
:100CB00000F054FDBFE740F2D511394800F04EFD79
:100CC000CCE74FF4EB71364800F048FDC9E740F23D
:100CD000D711334800F042FDC8E74FF4EC713048BB
:100CE00000F03CFDCBE740F2D9112D4800F036FD75
:100CF000C9E7E369226A1343616A47F6C07292FA50
:100D0000A2F2B2FA82F201FA02F21343A26A520884
:100D1000013A4FF4403191FAA1F1B1FA81F18A40E0
:100D20001343E16A4FF0706292FAA2F2B2FA82F2D1
:100D300001FA02F21343184A5360184B01221A6059
:100D4000FFF7B6FB0446144B1B6813F0007F06D177
:100D5000FFF7AEFB001B0228F5D9032018E00020A6
:100D600016E00E4B00221A60FFF7A2FB04460A4B66
:100D70001B6813F0007F06D0FFF79AFB001B0228C8
:100D8000F5D9032004E0002002E0012000E000206B
:100D900003B030BD0120FBE700380240600047424D
:100DA0003C2600081D4B9B6803F00C03042B32D03B
:100DB000082B01D01A487047184B586800F03F00C4
:100DC0005B6813F4800F16D0144B5B6847F6C07352
:100DD00093FAA3F30020114B5B6803F440334FF404
:100DE000403292FAA2F2B2FA82F2D34001335B00AF
:100DF000B0FBF3F070470A4AB2FBF0F2074B5868B9
:100E000047F6C073184093FAA3F3B3FA83F3D840BC
:100E100000FB02F0DFE70020704700BF003802400F
:100E20000024F40070B504460D460368013B0E2B08
:100E300011D80F2D15D88C4B1B6803F00F03AB4254
:100E400015D2EBB2884A1370136803F00F03AB425C
:100E50000DD0012070BD40F23721844800F07EFCA7
:100E6000E7E74FF40E71814800F078FCE3E7236870
:100E700013F0020F18D0A3687BB1802B0DD0902BFC
:100E80000BD0A02B09D0B02B07D0C02B05D0D02B76
:100E900003D0E02B01D0F02B37D1754A936823F0B3
:100EA000F003A1680B439360236813F0010F73D024
:100EB0006368032B2FD86368012B32D09A1E012A56
:100EC00036D96B4A126812F0020F00F0CA806849E6
:100ED0008A6822F0030213438B60FFF7E9FA0646A3
:100EE0006368012B2BD0022B38D0032B45D0604BED
:100EF0009B6813F00C0F4FD0FFF7DAFA801B41F21A
:100F000088339842F3D90320A4E740F24F21574891
:100F100000F024FCC1E740F25621544800F01EFCCA
:100F2000C9E7534A126812F4003FD0D1012091E77B
:100F30004F4A126812F0007FC9D101208AE74C4B5A
:100F40009B6803F00C03042B26D0FFF7B1FA801B3B
:100F500041F288339842F2D903207BE7444B9B68E7
:100F600003F00C03082B17D0FFF7A2FA801B41F205
:100F700088339842F2D903206CE73D4B9B6803F01D
:100F80000C030C2B08D0FFF793FA801B41F2883337
:100F90009842F2D903205DE7334B1B6803F00F033F
:100FA000AB4209D9EAB2304B1A701B6803F00F0349
:100FB000AB4201D001204DE7236813F0040F14D099
:100FC000E3685BB1B3F5805F08D0B3F5A05F05D0EF
:100FD000B3F5C05F02D0B3F5E05F36D1244A936821
:100FE00023F4E053E1680B439360236813F0080F88
:100FF00015D023695BB1B3F5805F08D0B3F5A05F6E
:1010000005D0B3F5C05F02D0B3F5E05F23D1184A35
:10101000936823F46043216943EAC1039360FFF7B7
:10102000C1FE134B9B6803F0F003F02292FAA2F288
:10103000B2FA82F2D3400F4AD35CD8400E4B18600C
:101040000F20FFF7FDF9002004E74FF42D7107484A
:1010500000F084FBC2E740F2BB21044800F07EFBB5
:10106000D5E70120F6E600BF003C02403C26000820
:10107000003802402C2600080C000020014B1868A4
:10108000704700BF0C00002008B5FFF7F7FF074BC3
:101090009B6803F4E0534FF4E05292FAA2F2B2FAE2
:1010A00082F2D340024AD35CD84008BD00380240E7
:1010B0002C26000808B5FFF7E1FF074B9B6803F4F7
:1010C00060434FF4604292FAA2F2B2FA82F2D34045
:1010D000024AD35CD84008BD003802402C260008E4
:1010E0002DE9F84304464268B44B9A4200F29C80D2
:1010F000E3681BB1B3F5005F40F09C80236933B116
:10110000B3F5806F03D0B3F5C06F40F09980636989
:101110004FF6F372134200D123B940F25271A8483E
:1011200000F01CFB21680A6922F44052E368134373
:101130000B612168CA6822F4164222F00C02A368EF
:101140002069034360690343E06903431343CB60B1
:1011500021684A6922F44072A36913434B61E36931
:10116000B3F5004F72D02368964A934200F02E8167
:1011700002F58062934200F02981FFF785FF00EBC2
:10118000800000EB80006568AD00B0FBF5F58E4F88
:10119000A7FB05356D092E01FFF776FF00EB8000F8
:1011A00000EB80006568AD00B0FBF5F9FFF76CFF60
:1011B00000EB800000EB80006568AD00B0FBF5F54A
:1011C000A7FB05356D094FF0640808FB15952D0147
:1011D0003235A7FB05356D0905F0F0053544FFF7FD
:1011E00053FF00EB800000EB80006668B600B0FBA8
:1011F000F6F6FFF749FF00EB800000EB8000636824
:101200009B00B0FBF3F0A7FB0030400908FB10681F
:101210004FEA081808F13208A7FB0837C7F343174D
:1012200023682F449F6027E140F24F71644800F02B
:1012300095FA5DE74FF4EA61614800F08FFA5DE7E7
:1012400040F251715E4800F089FA60E723685D4A18
:1012500093425BD002F58062934257D0FFF714FFB0
:1012600000EB800000EB800065686D00B0FBF5F5D9
:10127000554FA7FB05356D092E01FFF705FF00EB64
:10128000800000EB800065686D00B0FBF5F9FFF7AA
:10129000FBFE00EB800000EB800065686D00B0FB9A
:1012A000F5F5A7FB05356D094FF0640808FB1595AA
:1012B000ED003235A7FB05356D096D0005F4F875B5
:1012C0003544FFF7E1FE00EB800000EB800066682C
:1012D0007600B0FBF6F6FFF7D7FE00EB800000EBE0
:1012E000800063685B00B0FBF3F3A7FB03235B099B
:1012F00008FB13684FEAC80808F13208A7FB083753
:10130000C7F3421723682F449F60B5E0FFF7D2FE72
:1013100000EB800000EB800065686D00B0FBF5F528
:10132000294FA7FB05356D092E01FFF7C3FE00EB22
:10133000800000EB800065686D00B0FBF5F9FFF7F9
:10134000B9FE00EB800000EB800065686D00B0FB2B
:10135000F5F5A7FB05356D094FF0640808FB1595F9
:10136000ED003235A7FB05356D096D0005F4F87504
:101370003544FFF79FFE00EB800000EB80006668BD
:101380007600B0FBF6F6FFF795FE00EB800000EB71
:10139000800063685B00B0FBF3F3A7FB03235B09EA
:1013A00008FB13684FEAC80808F13208A7FB0837A2
:1013B000C7F3421723682F449F605DE0A037A00069
:1013C0006C260008001001401F85EB51FFF772FEEC
:1013D00000EB800000EB80006568AD00B0FBF5F528
:1013E000264FA7FB05356D092E01FFF763FE00EBC5
:1013F000800000EB80006568AD00B0FBF5F9FFF7F9
:1014000059FE00EB800000EB80006568AD00B0FB8A
:10141000F5F5A7FB05356D094FF0640808FB159538
:101420002D013235A7FB05356D0905F0F005354472
:10143000FFF740FE00EB800000EB80006668B6001E
:10144000B0FBF6F6FFF736FE00EB800000EB800005
:1014500063689B00B0FBF3F0A7FB0030400908FB7A
:1014600010684FEA081808F13208A7FB0837C7F3DD
:10147000431723682F449F60BDE8F8831F85EB5115
:101480002DE9F04105460F4616469846069C2B6806
:101490001B6837EA03030CBF01230023B3421DD1AD
:1014A000B4F1FF3FF3D02CB1FFF702F8A0EB080036
:1014B000A042ECD92A68D36823F4D073D3602A6899
:1014C000536923F001035361202385F8393085F8EF
:1014D0003A30002385F83830032000E00020BDE8D2
:1014E000F0810000002800F0918010B50446836967
:1014F000002B53D00368464A93420FD0A2F54C42CA
:1015000093420BD002F58062934207D002F54C4221
:10151000934203D0FE213F4800F020F9A36943B174
:10152000B3F5807F05D0B3F5007F02D0B3F5407FDF
:101530002FD1A36813B1B3F5805F55D1E36913B11F
:10154000B3F5004F56D194F83930002B58D02423EE
:1015500084F839302268D36823F40053D3602046DE
:10156000FFF7BEFD2268136923F4904313612268DC
:10157000536923F02A0353612268D36843F400536C
:10158000D3600020E063202384F8393084F83A30B7
:1015900010BDFF211F4800F0E1F8CAE703681C4AAC
:1015A0009342C6D0A2F54C429342C2D002F580626B
:1015B0009342BED002F580629342BAD002F58062B7
:1015C0009342B6D002F544429342B2D0A2F51C42F7
:1015D0009342AED002F580629342AAD040F203114A
:1015E0000C4800F0BBF8A4E740F20511094800F0F0
:1015F000B5F8A3E74FF48371064800F0AFF8A2E70F
:1016000084F83830204600F0AFFAA0E70120704798
:10161000001001406C2600082DE9F04182B01E4602
:1016200090F83930DBB2202B52D104460D4690465B
:10163000002952D0002A52D090F83830012B50D0D7
:10164000012380F838300023C363212380F8393028
:10165000FEF72EFF0746A4F82480A4F8268010E0A9
:1016600000963B46002280212046FFF709FF002814
:1016700039D12B882268C3F3080353602369ABB9BF
:101680000235E38CA3B1013BE384A368B3F5805F2B
:10169000E6D000963B46002280212046FFF7F0FE70
:1016A00018BB2A7823685A600135EAE70135E8E774
:1016B00000963B46002240212046FFF7E1FE03460C
:1016C000A8B9202284F83920002284F8382000E0CC
:1016D0000223184602B0BDE8F0810123F9E7012397
:1016E000F7E70223F5E70323F3E70323F1E70323F7
:1016F000EFE7FEE708B5034800F052F80120FFF7D6
:10170000F8FF00BF9C26000808B503460C4A126883
:101710005AB10B4A1068033323F003030344094A08
:10172000934206D8064A136008BD054A064911606F
:10173000EFE700F0C9FA0C2303604FF0FF30F3E746
:101740009027002000FC0220702800200123036065
:10175000014B0B60704700BF0400002008B50A462B
:101760000146024800F004F8FFF7C4FFB026000865
:101770000FB400B583B004AB53F8042B0193802160
:10178000064800F0DBFA002803DD0146034800F0BC
:1017900047F803B05DF804EB04B0704798270020C9
:1017A00010B5044600F096FA0146204600F038F8DD
:1017B0000121024800F034F810BD00BF7427000872
:1017C0002DE9F04385B004460F4643560BB10E4653
:1017D0001EE0042528462146ABBE0446384605B027
:1017E000BDE8F08314F9011B04AA1A4402F8101C86
:1017F0000133AB42F6D304AA1344002203F8102CA1
:101800004FF00408E94640464946ABBE8046761B89
:10181000002EE3D03546102E28BF10250023E8E720
:1018200008B5FFF7CDFF08BD08B500F093F8024AF0
:10183000024B9A6008BD00BF0000000800ED00E008
:10184000F8B504460D4617461E462748FFF790FF99
:1018500021682648FFF78CFF61682548FFF788FF5D
:10186000A1682448FFF784FFE1682348FFF780FF61
:1018700021692248FFF77CFF61692148FFF778FF63
:10188000A1692048FFF774FFE1691F48FFF770FF67
:101890001E48FFF76DFF29461D48FFF769FF1D4CE5
:1018A000E16A1D48FFF764FF216B1C48FFF760FFEA
:1018B000E16B1B48FFF75CFF15F0800F0AD115F4B0
:1018C000004F0CD11748FFF753FF06991648FFF752
:1018D0004FFFF8BD39461548FFF74AFFEFE731469D
:1018E0001348FFF745FFEDE7DC260008EC2600086B
:1018F000FC2600080C2700081C2700082C270008DD
:101900003C2700084C2700085C2700086C270008CB
:101910007827000800ED00E08827000898270008D5
:10192000A8270008D8270008E0270008B8270008E3
:10193000C827000883691A888A4201D000207047AE
:101940000268033A012A03D80233836101207047F9
:10195000002070470C4B1A6842F001021A60002107
:1019600099601A6822F0847222F480321A60074A61
:101970005A601A6822F480221A60D960044B4FF032
:1019800000629A60704700BF0038024010300024A7
:1019900000ED00E01F4B9B6803F00C03042B14D0F8
:1019A000082B16D01BB11C4B1C4A1A6002E01A4BC4
:1019B0001A4A1A60174B9B68C3F30313184AD15C89
:1019C000154A1368CB4013607047134B00221A600E
:1019D000F0E7104B5A685B6803F03F0312F4800F86
:1019E0000DD00C4B5B6800220A4B5B68C3F30143CC
:1019F00001335B00B2FBF3F3074A1360DAE7074AEF
:101A0000B2FBF3F2034B5B68C3F3881303FB02F2F0
:101A1000EAE700BF003802400C0000200024F40078
:101A20002428000830B587B00C4A136B43F0080334
:101A300013634FF48055019501230293022204920F
:101A40000393074C01A92046FEF7DEFD002229463C
:101A50002046FEF76DFF07B030BD00BF00380240E2
:101A6000000C02400A4B1B680A4AA2FB03239B0995
:101A7000013BB3F1807F09D2074A5360074BF02145
:101A800083F823100023936007231360704700BF7F
:101A90000C000020D34D621010E000E000ED00E0EB
:101AA000034B1B681BB1024A1368013B136070476C
:101AB0002828002008B5FEF7F3FCFFF7F1FF08BD6A
:101AC00030B595B000240194204B1A6C42F080523E
:101AD0001A641B6C03F080530193019B02941C4B0E
:101AE0001A6842F440421A601B6803F440430293B0
:101AF000029B0225089501230B9310230C930F944E
:101B000010934FF4A87311931295072313930E9516
:101B100008A8FEF729FF0F230393049505944FF4BB
:101B2000A05306934FF480530793052103A8FFF7B2
:101B300079F9FFF7A3FA074BA3FB00308009FEF702
:101B40002FFD0420FEF742FD15B030BD00380240E5
:101B500000700040D34D621008B5FEF787FCFFF718
:101B6000AFFFFFF717FF08BDF0B589B0002303935F
:101B700004930593069307930268204B9A4201D081
:101B800009B0F0BD0022009203F5F433196C41F462
:101B900080111964196C01F480110091009901926F
:101BA000196B41F004011963196B01F004010191F3
:101BB000019902921A6B42F008021A631B6B03F040
:101BC00008030293029B4FF4805303930227049768
:101BD00001260596032506950824079403A90848BD
:101BE000FEF712FD042303930497059606950794C8
:101BF00003A90448FEF708FDC2E700BF00500040FB
:101C000000080240000C024082B0002100910B4B02
:101C10001A6B42F004021A631A6B02F0040200927B
:101C2000009A01911A6B42F008021A631B6B03F0D1
:101C300008030193019B02B0704700BF00380240C7
:101C400008B50B480B4B03604FF4E13343600023AE
:101C50008360C36003610C2242618361C361FFF74B
:101C600041FC00B908BD0448FFF782FDFAE700BF58
:101C70002C280020005000403428000810B5FFF741
:101C8000DFFFFFF7C1FFFFF7EDFEFFF7CBFE11E02F
:101C90004FF0FF33084A12886420084900FB041102
:101CA0000748FFF7B9FC4FF47A70FEF707FC0134E0
:101CB000632CEDDD0024FBE720270020100000202E
:101CC0002C28002070470000014B1868704700BFA7
:101CD00024270020034613F8012B002AFBD1181AF1
:101CE0000138704730B5141E05469BB0184605DA1A
:101CF0008B232B604FF0FF301BB030BD4FF40273CD
:101D0000ADF80C3014BF04F1FF3323460293059362
:101D10004FF6FF7300910491ADF80E3002461E9B02
:101D20006946284600F072F8431CBCBF8B232B6029
:101D3000002CE1D0009B00221A70DDE707B500936C
:101D400013460A46014603480068FFF7CBFF03B07D
:101D50005DF804FB242700202DE9F0478E689E42A1
:101D600082460C469046994637D88A8912F4906F7D
:101D700031D0256809696F1A6569022305EB4505AD
:101D800095FBF3F509F101033B449D4238BF1D4625
:101D9000530530D5294600F07DFB064650B90C238B
:101DA000CAF80030A38943F04003A3814FF0FF300D
:101DB000BDE8F0873A46216900F0FAFAA38923F4D6
:101DC000906343F08003A381266165613E44ED1B6F
:101DD0002660A5604E464E4500D94E4632464146E5
:101DE000206800F0F0FAA3689B1BA36023681E44E0
:101DF00026600020DCE72A4600F0A6FB0646002805
:101E0000E2D12169504600F0F7FAC8E72DE9F04F1A
:101E10001D468B891F069DB080460C4616460FD581
:101E20000B696BB9402100F035FB2060206128B9B7
:101E30000C23C8F800304FF0FF30C8E04023636146
:101E40000023099320238DF8293030238DF82A3080
:101E500003954FF0010B37463D4615F8013B0BB19A
:101E6000252B3ED1B7EB060A0BD05346324621460E
:101E70004046FFF771FF013000F0A480099B5344F6
:101E800009933B78002B00F09D8000234FF0FF3238
:101E9000CDE90523049307938DF853301A932F4609
:101EA000052217F8011B504800F032FA049BD0B904
:101EB000D90644BF20228DF853201A0744BF2B2295
:101EC0008DF853202A782A2A15D0079A2F46002009
:101ED0000A25394611F8013B303B092B4DD9B8B1E1
:101EE0000FE02F46B8E7404A801A0BFA00F018437B
:101EF00004903D46D3E7039A111D12680391002A0E
:101F000001DB079204E0524243F00203079204937C
:101F10003B782E2B0CD17B782A2B33D1039B1A1DB7
:101F20001B680392002BB8BF4FF0FF3302370593B5
:101F30002E4D39780322284600F0EAF938B14023C3
:101F4000401B03FA00F0049B0343013704933978E4
:101F500027488DF8281006227E1C00F0D9F90028A9
:101F600038D0244B13BB039B073323F007030833FC
:101F70000393099B4B4409936DE705FB0232012053
:101F80000F46A6E700230137059319460A25384670
:101F900010F8012B303A092A03D9002BC8D005913B
:101FA000C6E705FB012101230746F0E703AB0093D9
:101FB0002246114B04A94046AFF30080B0F1FF3F29
:101FC0008146D6D1A3895B063FF535AF09981DB090
:101FD000BDE8F08F03AB00932246074B04A94046AF
:101FE00000F082F8EAE700BF442800084A28000809
:101FF0004E28000800000000591D00082DE9F04798
:1020000091461F468A680B69DDF820809342B8BF6D
:102010001346C9F8003091F8432006460C4612B129
:102020000133C9F800302368990642BFD9F800305F
:102030000233C9F80030256815F0060507D104F110
:10204000190AE368D9F800209B1AAB4228DC94F8FF
:1020500043302268003318BF012392062DD404F1C7
:10206000430239463046C047013020D02368E56836
:10207000D9F8002003F00603042B08BFAD1AA368AB
:1020800022690CBF25EAE57500259342C4BF9B1A5F
:10209000ED184FF000091A344D451AD1002008E020
:1020A0000123524639463046C047013003D14FF034
:1020B000FF30BDE8F0870135C3E7E1185A1C302036
:1020C00081F84300224494F8451082F8431002330B
:1020D000C5E70123224639463046C0470130E6D0E5
:1020E00009F10109D8E700002DE9F04301F1430CA3
:1020F0000C46097E85B06E291746064698460C9A0E
:1021000000F0B38022D8632936D00AD8002900F025
:10211000B980582900F0838004F1420584F8421008
:1021200032E0642901D06929F6D1206813680506D8
:1021300003F104012AD51B681160002B03DA2D225C
:102140005B4284F843206F480A2239E0732900F08B
:102150009D8008D86F2920D07029DDD1236843F0F5
:102160002003236003E0752917D07829D4D1782380
:1021700084F84530644855E01368191D1B681160E8
:1021800004F1420584F8423001238CE01B681160A1
:1021900010F0400F18BF1BB2CFE713682568181D59
:1021A0001060280601D51B6802E06806FBD51B8875
:1021B00054486F2914BF0A220822002184F84310D2
:1021C0006568A560002DC0F29580216821F00401AA
:1021D0002160002B3DD1002D40F08E806546082AFD
:1021E0000BD12368DB0708D5236962689A42DEBFFA
:1021F000302305F8013C05F1FF35ACEB0503236105
:10220000CDF800803B4603AA21463046FFF7F6FE94
:1022100001304DD14FF0FF3005B0BDE8F0833948B3
:1022200084F84510136821681D1D1B6815600A0697
:102230000BD5CA0744BF41F0200121601BB92268B9
:1022400022F0200222601022B7E74D0648BF9BB261
:10225000EFE76546B3FBF2F102FB1133C35C05F80F
:10226000013D0B460029F5D1B9E71368256861697E
:10227000181D106028061B6801D5196002E06A0667
:10228000FBD51980002323616546B9E71368191D42
:1022900011601D6862680021284600F039F808B115
:1022A000401B606063682361002384F84330A7E724
:1022B00023692A4639463046C0470130AAD02368F0
:1022C0009B0713D4E068039B9842B8BF1846A3E766
:1022D00001234A4639463046C04701309AD001357D
:1022E000E368039A9B1AAB42F2DCEBE7002504F1AA
:1022F0001909F5E7002BACD1037884F8423004F1DA
:1023000042056CE755280008662800080000000018
:1023100001F0FF01102A2BDB10F0070F08D010F896
:10232000013B013A8B422DD010F0070F42B3F6D19A
:10233000F0B441EA012141EA014122F007047FF0B3
:1023400000070023F0E80256083C85EA010586EA0A
:10235000010685FA47F5A3FA87F586FA47F6A5FA46
:1023600087F68EB9EED1F0BC01F0FF0102F0070252
:1023700032B110F8013B013A83EA010313B1F8D1FD
:102380000020704701387047002D06BF35460338DE
:10239000073815F0010F07D1013015F4807F02BF17
:1023A000013015F4C03F0130F0BC0138704700BF68
:1023B00010B5431E0A44914200D110BD11F8014BE3
:1023C00003F8014FF7E7884210B501EB020307D885
:1023D000421E99420AD011F8014B02F8014FF8E76A
:1023E0008342F5D98118D21AD34200D110BD13F817
:1023F000014D01F8014DF7E738B50546002945D0F4
:1024000051F8043C0C1F002BB8BFE41800F0D2F8C0
:102410001F4A1368104633B9636014602846BDE84C
:10242000384000F0C8B8A3420CD921686218934222
:1024300004BF1A685B68636004BF521822600460BE
:10244000ECE713465A680AB1A242FAD9196858183B
:10245000A0420BD120680144581882421960DDD196
:10246000106852685A6001441960D7E702D90C23FA
:102470002B60D3E7206821188A4204BF1168526894
:10248000626004BF091821605C60C7E738BD00BF07
:102490001828002070B5CD1C25F0030508350C2D3B
:1024A00038BF0C25002D064601DBA94203D90C23B9
:1024B0003360002070BD00F07DF8214A1468214689
:1024C00091B9204C23681BB9304600F063F82060B6
:1024D0002946304600F05EF8431C24D10C233360BB
:1024E000304600F068F8E4E70B685B1B18D40B2B50
:1024F0000FD90B60CD50CC18304600F05CF804F1D9
:102500000B00231D20F00700C31AD3D05A42E2501B
:10251000D0E78C424B6816BF636013600C46EBE754
:102520000C464968CCE7C41C24F00304A04205D043
:10253000211A304600F02EF80130CFD02560DBE7BD
:10254000182800201C280020F8B5074614460E461F
:1025500021B91146BDE8F840FFF79CBF22B9FFF74B
:102560004BFF25462846F8BD00F026F8A0420FD2C2
:1025700021463846FFF78EFF05460028F2D0314647
:102580002246FFF715FF31463846FFF735FFE9E7EA
:102590003546E7E738B5064C002305460846236074
:1025A000FFF7B2F8431C02D1236803B12B6038BD9A
:1025B000242800207047704751F8043C181F002B56
:1025C000BCBF0B58C01870472E2E2F7379737465DB
:1025D0006D2F7372632F73746D333266342D68619F
:1025E0006C2F73746D3332663478785F68616C5F1A
:1025F000636F727465782E63000000002E2E2F73B7
:10260000797374656D2F7372632F73746D333266D3
:10261000342D68616C2F73746D3332663478785F53
:1026200068616C5F6770696F2E63000000000000D6
:102630000102030401020304060708092E2E2F736A
:10264000797374656D2F7372632F73746D33326693
:10265000342D68616C2F73746D3332663478785F13
:1026600068616C5F7263632E630000002E2E2F730F
:10267000797374656D2F7372632F73746D33326663
:10268000342D68616C2F73746D3332663478785FE3
:1026900068616C5F756172742E63000061626F72B5
:1026A0007428292C2065786974696E672E2E2E0097
:1026B0006173736572745F706172616D2829206641
:1026C00061696C65643A2066696C65202225732215
:1026D0002C206C696E652025640A000053746163C8
:1026E0006B206672616D653A0A000000205230204E
:1026F0003D2020253038580A0000000020523120AB
:102700003D2020253038580A000000002052322099
:102710003D2020253038580A000000002052332088
:102720003D2020253038580A000000002052313268
:10273000203D20253038580A00000000204C52204F
:102740003D2020253038580A00000000205043204A
:102750003D2020253038580A0000000020505352F8
:10276000203D20253038580A000000004653522FE3
:102770004641523A0A0000002043465352203D2071
:1027800020253038580A00002048465352203D206A
:1027900020253038580A00002044465352203D205E
:1027A00020253038580A00002041465352203D2051
:1027B00020253038580A0000204D4D464152203D1A
:1027C00020253038580A00002042464152203D2042
:1027D00020253038580A00004D6973630A00000054
:1027E000204C522F4558435F52455455524E3D2080
:1027F000253038580A0000005B48617264466175F4
:102800006C745D0A000000005B4275734661756C74
:10281000745D0A005B55736167654661756C745D34
:102820000A00000000000000000000000102030494
:1028300006070809554152542035204572726F72BF
:1028400000000000232D302B2000686C4C006566D2
:1028500067454647003031323334353637383941F1
:102860004243444546003031323334353637383907
:07287000616263646566000C
:102878007856341294270020000000000024F40049
:102888004D4D4D4D4D4D4D4D4D4D4D4D4D4D4D4D70
:102898004D4D4D4D4D4D4D4D4D4D4D4D4D4D4D4D60
:1028A8004D4D4D4D4D4D4D4D4D4D4D4D4D4D4D4D50
:1028B8004D4D4D4D4D4D4D4D4D4D4D4D4D4D4D4D40
:1028C8004D4D4D4D4D4D4D4D4D4D4D4D4D4D4D4D30
:1028D8004D4D4D4D4D4D4D4D4D4D4D4D4D4D4D4D20
:1028E8004D4D4D4D4D4D4D4D4D4D4D4D4D4D4D4D10
:1028F8004D4D4D4D4D4D4D4D4D4D4D4D4D4D4D4D00
:102908004D4D4D4D4D4D4D4D4D4D4D4D4D4D4D4DEF
:102918004D4D4D4D4D4D4D4D4D4D4D4D4D4D4D4DDF
:102928004D4D4D4D4D4D4D4D4D4D4D4D4D4D4D4DCF
:102938004D4D4D4D4D4D4D4D4D4D4D4D4D4D4D4DBF
:102948004D4D4D4D4D4D4D4D4D4D4D4D4D4D4D4DAF
:102958004D4D4D4D4D4D4D4D4D4D4D4D4D4D4D4D9F
:102968004D4D4D4D4D4D4D4D4D4D4D4D4D4D4D4D8F
:102978004D4D4D4D4D4D4D4D4D4D4D4D4D4D4D4D7F
:102988004D4D4D4D4D4D4D4D4D4D4D4D4D4D4D4D6F
:102998004D4D4D4D4D4D4D4D4D4D4D4D4D4D4D4D5F
:1029A8004D4D4D4D4D4D4D4D4D4D4D4D4D4D4D4D4F
:1029B8004D4D4D4D4D4D4D4D4D4D4D4D4D4D4D4D3F
:1029C8004D4D4D4D4D4D4D4D4D4D4D4D4D4D4D4D2F
:1029D8004D4D4D4D4D4E4E6D6468687979797979D4
:1029E800797979797968646D4E4E4E4D4D4D4D4DDE
:1029F8004D4D4D4D4D4D4D4D4D4D4D4D4D4D4D4DFF
:102A08004D4D4D4D4D4D4D4D4D4D4D4D4D4D4D4DEE
:102A18004D4D4D4D4D4D4D4D4D4D4D4D4D4D4D4DDE
:102A28004D4D4D4D4D4D4D4D4D4D4D4D4D4D4D4DCE
:102A38004D4D4D4E4E6468796F2F3A3A2F2F2B2B00
:102A48006F6F6F6F2B3A2F2B2F2F3A3A2F3A2B6835
:102A580079646D4E4E4D4D4D4D4D4D4D4D4D4D4D39
:102A68004D4D4D4D4D4D4D4D4D4D4D4D4D4D4D4D8E
:102A78004D4D4D4D4D4D4D4D4D4D4D4D4D4D4D4D7E
:102A88004D4D4D4D4D4D4D4D4D4D4D4D4D4D4D4D6E
:102A98004D4D4D4E6D64732F3A3A3A3A3A2D3A3AC3
:102AA8003A2F2F2B73732B2B2B2B2B2F2B6F6F6FF7
:102AB800736F2B6F2F2F3A3A6F79644E4E4D4D4DF1
:102AC8004D4D4D4D4D4D4D4D4D4D4D4D4D4D4D4D2E
:102AD8004D4D4D4D4D4D4D4D4D4D4D4D4D4D4D4D1E
:102AE8004D4D4D4D4D4D4D4D4D4D4D4D4D4D4D4D0E
:102AF8004D4D4D4D4E4E64796F2F2D2D2E2E2D3A66
:102B08003A2B797979796F6F73792B2B2F3A3A2D84
:102B18002D2D2D3A3A7373732F2F2F6F2B737979CD
:102B280068686D4E4D4D4D4D4D4D4D4D4D4D4D4D76
:102B38004D4D4D4D4D4D4D4D4D4D4D4D4D4D4D4DBD
:102B48004D4D4D4D4D4D4D4D4D4D4D4D4D4D4D4DAD
:102B58004D4D4D4D4D4E6D6464682B6F3A3A2B2F99
:102B68002D2F2B2F3A2D2B68646468792B3A3A3A2B
:102B78003A2D3A2E2E797968797968686F2B7973AE
:102B88002F2D2D2B737979686D4E4E4D4D4D4D4D32
:102B98004D4D4D4D4D4D4D4D4D4D4D4D4D4D4D4D5D
:102BA8004D4D4D4D4D4D4D4D4D4D4D4D4D4D4D4D4D
:102BB8004D4D4D4D4D4D4D4E686F7368686F6F6F3D
:102BC8002F2B6F6F2B2B6F737373686864733A3A8C
:102BD8002D2F73737979792F3A736D686F2B2B2F9B
:102BE8002B2F6F2B3A2D2F2B2B6F68646879796DFB
:102BF8004E4D4D4D4D4D4D4D4D4D4D4D4D4D4D4DFC
:102C08004D4D4D4D4D4D4D4D4D4D4D4D4D4D4D4DEC
:102C18004D4D4D4D4D4D4D4D4D4E6873736464682B
:102C2800736F6F736F736F6F2B3A2F797968797938
:102C3800796F2B2F2B6F7979646D797368686D6D57
:102C4800796F2B2B73736F3A2E2D3A6F6879686DF5
:102C5800646868686D6D4E4D4D4D4D4D4D4D4D4DF3
:102C68004D4D4D4D4D4D4D4D4D4D4D4D4D4D4D4D8C
:102C78004D4D4D4D4D4D4D4D4D4D4D4E682F2B6885
:102C88006464686F6F73737379732B2B2B2B6F7955
:102C98007968797979732B2B6F737373736F796490
:102CA8006D646D6D6D646464646464686F2F3A6FFD
:102CB80079686D6D6D646D6D6468644E4E4D4D4DF3
:102CC8004D4D4D4D4D4D4D4D4D4D4D4D4D4D4D4D2C
:102CD8004D4D4D4D4D4D4D4D4D4D4D4D4D4D6D73D6
:102CE8002B6F68686879732F6F732B6F6F2B2F2F7B
:102CF8002F2B6F797979797979736F6F736873731B
:102D080073686D6D6D6D6D6D6D6D6D6D6D6D6D6DEA
:102D18006D6464646479646D6D6D6D4E6D6868642E
:102D28006D4E4D4D4D4D4D4D4D4D4D4D4D4D4D4DAA
:102D38004D4D4D4D4D4D4D4D4D4D4D4D4D4D4D4DBB
:102D48004E64797373736F6F3A2B6F2F6F732B2BDE
:102D58002B2F2F2B2B6F797979796868797973689C
:102D680064686864646D6D6D6D6D64646D6D6D6DC2
:102D78006D6D6D6D6D6D6D6D6D64796D6D6D6D6D78
:102D88004E6D6D6D4E6D6D4E4D4D4D4D4D4D4D4DC8
:102D98004D4D4D4D4D4D4D4D4D4D4D4D4D4D4D4D5B
:102DA8004D4D4D4E686868732F6F6F2B7368737342
:102DB80079792B2B6F2B2F6F79646464646468684E
:102DC80068686F732B6F646D646D64646D6D6D649A
:102DD8006D6D6D6D6D6D6D6D6D6D6D6D6D6D6D4E3A
:102DE8004E4E6D6D4E4E4E4E4E4E646D4E4D4D4D8B
:102DF8004D4D4D4D4D4D4D4D4D4D4D4D4D4D4D4DFB
:102E08004D4D4D4D4D4D4E68686864682B2B2B73A6
:102E180064686F647979732B6F736F796D64646418
:102E28006879736F79647973737368646D646868BB
:102E3800646D6D6D6D6D6D6D6D6D6D6D6D6D6D6DC3
:102E48006D6D6D6D6D4E6D6D6D6D6D646D4E646403
:102E58006D4E4D4D4D4D4D4D4D4D4D4D4D4D4D4D79
:102E68004D4D4D4D4D4D4D4D4D4E686879686879C5
:102E78006F7379686F2F3A2F2B79796F737979642B
:102E88006464646879797968646868687979686479
:102E98006464646D6D6D646D6D6D6D6D6D6D6D6D7E
:102EA8006D6D6D6D6D6D6D6D6D6D4E6D646D6D7966
:102EB80068687379686D4E4D4D4D4D4D4D4D4D4D76
:102EC8004D4D4D4D4D4D4D4D4D4D4D4D4E646873D1
:102ED800732B2F3A2F792F3A3A2D2D3A2B2F7373C4
:102EE8007979736864646468796F68797964646D02
:102EF8006464686864646864646D64646D6D646D5A
:102F08006D646D646D6D6D6D6D6D6D6D4E4E6D4E58
:102F1800644E6D646D682F6F79646D4E4D4D4D4DE7
:102F28004D4D4D4D4D4D4D4D4D4D4D4D4D4D4D4EC8
:102F3800646879736868686864646F2D2D2E2E2F15
:102F4800792B2B2B7979736F737979732F79642B9C
:102F58006F64646D6D64646464646464646D6868FB
:102F68006464646D6D64646D6D6D6D6D6D6D6D6DB6
:102F78006D6D4E4E6D6D6D4E4E4E79797368646D04
:102F88004E4D4D4D4D4D4D4D4D4D4D4D4D4D4D4D68
:102F98004D4D4D6D68646F79797968646468682F00
:102FA8002D3A2B6F2F6F7373797968646468737324
:102FB80073736F6F3A73646D6D6D6D6D6D6D6D6468
:102FC80064646468736D6D6D6D79646D6D6D6D6D40
:102FD8006D6D6D6D6D4E4E4E6D6D4E4E4E6D6464E5
:102FE80068686D6D4E4D4D4D4D4D4D4D4D4D4D4D92
:102FF8004D4D4D4D4D4D4E6D68682F686D6D647328
:10300800737979797379686F2F6468736464646419
:10301800647979797979736F2F73646D64646D64F9
:1030280064646864646D646468646D6D6D6D6D6D11
:103038006D64646D6D6D6D6D6D4E4E4E4E4E4E4EA3
:103048004E6D644E4E6D6D4E4E4E4D4D4D4D4D4D2B
:103058004D4D4D4D4D4D4D4D4D4D6D6D6D646464F3
:103068006D64682B2D2D6F68686F6F6F73686F3A8A
:10307800686464647979682B2B6F736F2F2B6F7377
:10308800686868797979797379796864686868684B
:103098006D6D6D64646D6D6D6D6D6D6D6D6D6D4E89
:1030A8004E4E4E6D6D4E6D4E4E6D646D4E4E4D4D89
:1030B8004D4D4D4D4D4D4D4D4D4D4D4D4D4D646D01
:1030C8006D6D6468646464732F2E2F7968796873F2
:1030D8002B2B3A2D797968797973736464797379CC
:1030E80073796F796F6F737979796F73736F6F73A2
:1030F8007973686868646D6D6D6D6D6D6D6D6D6DFE
:103108006D6D4E6D6D646D4E4E4E4E6D796868797D
:103118006D4E4D4D4D4D4D4D4D4D4D4D4D4D4D4DB6
:103128004D4E646D686F646864686868796F6F682D
:1031380064687964793A2D3A2F2D2B6F7364736F15
:10314800686879792B2E3A3A2E2E2F79736F6F2B68
:103158006F6F6F7968686464646868686868646DCC
:103168006D6D6D6D6D4E4E4E4E4E4E6D4E4E6D6488
:10317800687364686D4E4E4D4D4D4D4D4D4D4D4DE2
:103188004D4D4D4D4D4E796F6F6F64646D646D6D2F
:103198006D6D64646473796479732F2D2D3A2F2BC8
:1031A80073736F2B736F792F2B3A2F3A2E2D2F2B8A
:1031B8002F6F6F6F6F737979686464797968686461
:1031C80064646468646D6D6D6D6D4E4E4E4E4E4E0A
:1031D8004E4E4E6D4E4E4E6D4E4E4E4D4D4D4D4DCE
:1031E8004D4D4D4D4D4D4D4D4D4E7973686D64644B
:1031F800646D6D646D6D6D6864646D6D6468797916
:103208007979686D647968646464733A6F6F2B2F99
:103218002F2F6F732B6F6F2B6F7373797979797980
:1032280068686868646468792B79646D6D6D4E4E62
:103238004E4E4E4E4E4E4E4E4E4E6D6D4E4E4E4D69
:103248004D4D4D4D4D4D4D4D4D4D4D4D4D4E68686F
:103258006468646868646D6D6D6D6D6D6868646DD3
:103268006468646D6464646D6D6D686464646464EA
:103278006D64792F2F3A2F3A3A2F2F3A6F73737361
:103288007379797968686868686868687979796845
:1032980068646D6D6D4E4E4E4E4E4E4E4E4E686489
:1032A8004E4E4E4D4D4D4D4D4D4D4D4D4D4D4D4D43
:1032B8004D4E796D6D6D6D6D6D6D6D646464646D8D
:1032C8006464646864686868646464796468796874
:1032D80064646D6D6464682B2E2E2D2D2E2F2F6F38
:1032E80073737373737379737979796868686879B4
:1032F80079796879686879686D6D4E4E4E4E4E4E94
:103308004E4E4E4E4E4E4E4D4D4D4D4D4D4D4D4DDE
:103318004D4D4D4D4D4E79686D6D6D6D6D6D64649F
:103328006D6D6464646D6D6D646864686464646420
:1033380079736F2F737379796868732B3A2D2F2BF4
:103348002F2B2F6F6F7373797979797979797968F8
:10335800686879796F7373796879796879686D4E77
:103368004E6D4E4E4E4E4E4E4E4E4E4D4D4D4D4D5B
:103378004D4D4D4D4D4D4D4D4D4D646464646464EB
:10338800646D646D646864646D646D6D6D646464BB
:103398006464797968792B2B792B3A3A2D3A7964D8
:1033A8006F2B2B736F2B73737979797973737379A7
:1033B80079797979796879736F6F2B7979737979F4
:1033C80079646D6D6D6D6D6D6D6D4E4E4E4E4D4DDE
:1033D8004D4D4D4D4D4D4D4D4D4D4D4D4D4D4E68F9
:1033E800646868646868686468646464646464647D
:1033F8006464686868686464686868686868686855
:10340800792F2B79796F2F6F6F7379737373737348
:1034180073736F6F797979737979736F736F6F736A
:10342800737968646D6D6D646D6D4E4E6D686D4E2B
:103438004E4E4D4D4D4D4D4D4D4D4D4D4D4D4D4DB2
:103448004D4D4E646D646864686868796464646D41
:10345800646464646464646464686864646464641C
:10346800686868686879736F2F2F2B2B2B2B2B6F4D
:103478006F736F2B6F736F6F6F73796F7973736F70
:103488002B7373736F6F6F6D4E4E4E4E4E4E4E4E86
:103498006D6D4E4E4E4D4D4D4D4D4D4D4D4D4D4D11
:1034A8004D4D4D4D4D4D4D4E646D6D6D6D646D645E
:1034B80064646D646464646464646464646D6D64A9
:1034C8006464646D6D6464686879732B3A3A2F2B71
:1034D8002B2B6F2B6F7968797373736F7373736F9B
:1034E8007373737373797979732D2E2B68686D4EA6
:1034F8004E4E4E4E4E4E4E4E4E4D4D4D4D4D4D4DEB
:103508004D4D4D4D4D4D4D4D4D4D4D4D64736D6D66
:103518006D6D6D646D6D6464646468686864646D21
:103528006D6464646464646864646464686464683E
:10353800792B3A3A2F2B2B2B6F2B737968736F7378
:103548007373736F6F7373737379792B2D2E2F2F9A
:103558003A2B2B6F646D4E4E4E4E4E4E4D4D4D4D8B
:103568004D4D4D4D4D4D4D4D4D4D4D4D4D4D4D4D83
:103578004E686F737964646D6464646464646464DD
:10358800686464646D6D646D6468732B686D6D64E4
:103598006464687979736F2B2F3A2F3A6F2F6F73A2
:1035A80068797373737373737373736F7379732D2C
:1035B8002F6F68646464796F79686D4E4E4E4E4E15
:1035C8004D4D4D4D4D4D4D4D4D4D4D4D4D4D4D4D23
:1035D8004D4D4D4D4D4E686F3A2D2F6F7368686491
:1035E800646464646464646D6D646464646464687D
:1035F8007379686D6464796F2B6F73736F2B2F3ACF
:103608002B6F7368797379797979687973797373BA
:10361800797968686D4E4E4E4E4E6D68646D6D4E8C
:103628004E4E4E4D4D4D4D4D4D4D4D4D4D4D4D4DBF
:103638004D4D4D4D4D4D4D4D4D4D4E64686F2F2E9A
:103648002D2D2B79686D646464646D64646D6D6D93
:103658006D6D64686F2B686D6D6D6D646464646412
:103668006868682F3A6F79687979797979686868CC
:10367800686868646D4E4E4E4E4E4E4E4E4E4E4EDF
:103688004E4E4E4E4E4E4D4D4D4D4D4D4D4D4D4D5C
:103698004D4D4D4D4D4D4D4D4D4D4D4D4D4D4D4E51
:1036A8006D6464793A2E2E2D3A79646D6D646D6D72
:1036B8006464646D646D6D6464646D6D6D6D6D6D71
:1036C8006464646D6D6D732B6F797979737979732F
:1036D8003A2D3A3A2F73646D4E4E4E4E4E4E4E4E24
:1036E8004E4E4E4E4E4E4E4E4E4D4D4D4D4D4D4DF9
:1036F8004D4D4D4D4D4D4D4D4D4D4D4D4D4D4D4DF2
:103708004D4D4D4D4D6D686864792F2D2E2E2F68C7
:103718006D6D6D6D6D6D6464646468646464646427
:103728006D6D64646D6D6D6D6D6D732F79797979DB
:1037380079797979732F2D2E2D2B6F646D6D6D6DC1
:103748006D4E4E4E4E4E4E4E4E4E4E4D4D4D4D4D77
:103758004D4D4D4D4D4D4D4D4D4D4D4D4D4D4D4D91
:103768004D4D4D4D4D4D4D4D4D4D4E6479686479DF
:103778002F2D2E2D2B646D6D6D64646479796864CA
:1037880064686868646464646464646D6D646F2FFD
:1037980079737968686868646D6D792B2D3A7373ED
:1037A8006879686D6D4E4E4E4E4E4E4E4E4E4D4D96
:1037B8004D4D4D4D4D4D4D4D4D4D4D4D4D4D4D4D31
:1037C8004D4D4D4D4D4D4D4D4D4D4D4D4D4D4D4D21
:1037D8006D7973796464792B2D3A2F79686D6464F7
:1037E8002D797973736F7968686864646464646D4B
:1037F800642B3A737973797968796868737968683A
:103808002F2B2B2B68646464646D4E4E4E4E4E4EC7
:103818004D4D4D4D4D4D4D4D4D4D4D4D4D4D4D4DD0
:103828004D4D4D4D4D4D4D4D4D4D4D4D4D4D4D4DC0
:103838004D4D4D4D4D4E6D687968646D796F2F2DE6
:103848003A73736F6F792F2B2B2F2B2B2B6F73736F
:1038580079686868792F6F2B2B73646464796F6F4C
:103868002D2D3A6F2B6F2F7368686879644E4E4E12
:103878004E4E4E4D4D4D4D4D4D4D4D4D4D4D4D4D6D
:103888004D4D4D4D4D4D4D4D4D4D4D4D4D4D4D4D60
:103898004D4D4D4D4D4D4D4D4D4D4D4E6D687379C2
:1038A800686479732E2E2B732F2F3A2E2D2E2F2BE3
:1038B8002F2F3A2F2B2B2F2B2F2F737379644E6DAD
:1038C800686868736F736F79797979796868686DF2
:1038D8004E4E4E4E4E4D4D4D4D4D4D4D4D4D4D4D0B
:1038E8004D4D4D4D4D4D4D4D4D4D4D4D4D4D4D4D00
:1038F8004D4D4D4D4D4D4D4D4D4D4D4D4D4D4D4DF0
:103908004D4D4E64797973732F2D2D3A2B2B2B6FD8
:103918002B2D2B3A602D3A2B2B2F2D2E2D2B3A2B7E
:1039280068646868797979797968686864797968A0
:103938006D6D4E4E4E4E4D4D4D4D4D4D4D4D4D4D6B
:103948004D4D4D4D4D4D4D4D4D4D4D4D4D4D4D4D9F
:103958004D4D4D4D4D4D4D4D4D4D4D4D4D4D4D4D8F
:103968004D4D4D4D4D4D4D4D4D4E64796F2B2B2F7B
:103978002D2D2D2E2D3A2D3A3A2B736F2F2B6F7339
:103988002B2F2F2B2F2F2B2B2B6F73737373737975
:10399800796868646D4E4E4D4D4D4D4D4D4D4D4DB4
:1039A8004D4D4D4D4D4D4D4D4D4D4D4D4D4D4D4D3F
:1039B8004D4D4D4D4D4D4D4D4D4D4D4D4D4D4D4D2F
:1039C8004D4D4D4D4D4D4D4D4D4D4D4D4D4D4D4D1F
:1039D8004E6D68792B2F3A3A3A3A2F7379736F2FD5
:1039E8002F2B2B2B2F2F2D2D3A2D2D3A3A3A3A3AB1
:1039F8002F7379646D6D4E4E4D4D4D4D4D4D4D4D62
:103A08004D4D4D4D4D4D4D4D4D4D4D4D4D4D4D4DDE
:103A18004D4D4D4D4D4D4D4D4D4D4D4D4D4D4D4DCE
:103A28004D4D4D4D4D4D4D4D4D4D4D4D4D4D4D4DBE
:103A38004D4D4D4D4D4D4D4D4E4E6D68796F2B2B67
:103A48006F2F2F3A3A2D2E2E2D2D2D3A3A3A2F2F11
:103A58006F7368646D4E4E4E4D4D4D4D4D4D4D4DF1
:103A68004D4D4D4D4D4D4D4D4D4D4D4D4D4D4D4D7E
:103A78004D4D4D4D4D4D4D4D4D4D4D4D4D4D4D4D6E
:103A88004D4D4D4D4D4D4D4D4D4D4D4D4D4D4D4D5E
:103A98004D4D4D4D4D4D4D4D4D4D4D4D4D4D4D4D4E
:103AA8004D4D4D4E4E4E6D6D646464646464646D3A
:103AB8006D4E4E4E4E4D4D4D4D4D4D4D4D4D4D4D0A
:103AC8004D4D4D4D4D4D4D4D4D4D4D4D4D4D4D4D1E
:103AD8004D4D4D4D4D4D4D4D4D4D4D4D4D4D4D4D0E
:103AE8004D4D4D4D4D4D4D4D4D4D4D4D4D4D4D4DFE
:103AF8004D4D4D4D4D4D4D4D4D4D4D4D4D4D4D4DEE
:104F98006400FFFF28270020000000000000000038
:104FA80000000000000000000000000000000000F9
:104FB80000000000000000000000000000000000E9
:104FC80000000000000000000000000000000000D9
:104FD80000000000000000000000000000000000C9
:104FE80000000000000000000000000000000000B9
:0C4FF80000000000000000003254769819
:0400000508000440AB
:00000001FF
